{
  "_format": "hh-sol-artifact-1",
  "contractName": "QuestoStorage",
  "sourceName": "contracts/QuestoStorage.sol",
  "abi": [
    {
      "anonymous": false,
      "inputs": [
        {
          "indexed": false,
          "internalType": "string",
          "name": "message",
          "type": "string"
        }
      ],
      "name": "NewPlayerAdded",
      "type": "event"
    },
    {
      "inputs": [
        {
          "internalType": "uint32",
          "name": "score",
          "type": "uint32"
        }
      ],
      "name": "change_score",
      "outputs": [],
      "stateMutability": "payable",
      "type": "function"
    },
    {
      "inputs": [],
      "name": "count_players",
      "outputs": [
        {
          "internalType": "uint256",
          "name": "",
          "type": "uint256"
        }
      ],
      "stateMutability": "view",
      "type": "function"
    },
    {
      "inputs": [],
      "name": "get_all_players",
      "outputs": [
        {
          "internalType": "address[]",
          "name": "",
          "type": "address[]"
        }
      ],
      "stateMutability": "view",
      "type": "function"
    },
    {
      "inputs": [],
      "name": "get_all_players_info",
      "outputs": [
        {
          "internalType": "string[]",
          "name": "",
          "type": "string[]"
        },
        {
          "internalType": "uint32[]",
          "name": "",
          "type": "uint32[]"
        },
        {
          "internalType": "uint8[]",
          "name": "",
          "type": "uint8[]"
        }
      ],
      "stateMutability": "view",
      "type": "function"
    },
    {
      "inputs": [
        {
          "internalType": "address",
          "name": "player_address",
          "type": "address"
        }
      ],
      "name": "get_player_flag",
      "outputs": [
        {
          "internalType": "uint8",
          "name": "",
          "type": "uint8"
        }
      ],
      "stateMutability": "view",
      "type": "function"
    },
    {
      "inputs": [
        {
          "internalType": "address",
          "name": "player_address",
          "type": "address"
        }
      ],
      "name": "get_player_info",
      "outputs": [
        {
          "internalType": "string",
          "name": "",
          "type": "string"
        },
        {
          "internalType": "uint32",
          "name": "",
          "type": "uint32"
        },
        {
          "internalType": "uint8",
          "name": "",
          "type": "uint8"
        }
      ],
      "stateMutability": "view",
      "type": "function"
    },
    {
      "inputs": [
        {
          "internalType": "address",
          "name": "player_address",
          "type": "address"
        }
      ],
      "name": "get_player_name",
      "outputs": [
        {
          "internalType": "string",
          "name": "",
          "type": "string"
        }
      ],
      "stateMutability": "view",
      "type": "function"
    },
    {
      "inputs": [
        {
          "internalType": "address",
          "name": "player_address",
          "type": "address"
        }
      ],
      "name": "get_player_score",
      "outputs": [
        {
          "internalType": "uint32",
          "name": "",
          "type": "uint32"
        }
      ],
      "stateMutability": "view",
      "type": "function"
    },
    {
      "inputs": [],
      "name": "get_start_message",
      "outputs": [
        {
          "internalType": "string",
          "name": "",
          "type": "string"
        }
      ],
      "stateMutability": "pure",
      "type": "function"
    },
    {
      "inputs": [],
      "name": "give_the_bounty_to_winner",
      "outputs": [],
      "stateMutability": "payable",
      "type": "function"
    },
    {
      "inputs": [],
      "name": "reset_players_score",
      "outputs": [],
      "stateMutability": "nonpayable",
      "type": "function"
    },
    {
      "inputs": [
        {
          "internalType": "string",
          "name": "name",
          "type": "string"
        }
      ],
      "name": "start_the_game",
      "outputs": [
        {
          "internalType": "bool",
          "name": "",
          "type": "bool"
        }
      ],
      "stateMutability": "nonpayable",
      "type": "function"
    }
  ],
  "bytecode": "0x60806040526000600360006101000a81548160ff021916908360ff16021790555034801561002c57600080fd5b50611c3f8061003c6000396000f3fe6080604052600436106100a75760003560e01c80637b6ad0ee116100645780637b6ad0ee146101b3578063a67f1c83146101f0578063a6b24ced14610207578063b3b0079e14610234578063c4902d5f14610271578063f6a4508c1461028d576100a7565b8063070bbcf9146100ac57806335e2b172146100e9578063407cfe5e146100f3578063535eb3b31461011e5780636068039914610149578063774ed3fb14610174575b600080fd5b3480156100b857600080fd5b506100d360048036038101906100ce91906112bd565b6102ca565b6040516100e09190611309565b60405180910390f35b6100f1610326565b005b3480156100ff57600080fd5b5061010861058b565b60405161011591906113e2565b60405180910390f35b34801561012a57600080fd5b506101336106b1565b604051610140919061149d565b60405180910390f35b34801561015557600080fd5b5061015e6106ee565b60405161016b91906114d8565b60405180910390f35b34801561018057600080fd5b5061019b600480360381019061019691906112bd565b610708565b6040516101aa9392919061150f565b60405180910390f35b3480156101bf57600080fd5b506101da60048036038101906101d591906112bd565b61088b565b6040516101e7919061149d565b60405180910390f35b3480156101fc57600080fd5b5061020561095f565b005b34801561021357600080fd5b5061021c610a88565b60405161022b939291906117d5565b60405180910390f35b34801561024057600080fd5b5061025b600480360381019061025691906112bd565b610e88565b6040516102689190611821565b60405180910390f35b61028b60048036038101906102869190611868565b610ee1565b005b34801561029957600080fd5b506102b460048036038101906102af91906119ca565b610ffe565b6040516102c19190611a2e565b60405180910390f35b6000600260008373ffffffffffffffffffffffffffffffffffffffff1673ffffffffffffffffffffffffffffffffffffffff16815260200190815260200160002060010160009054906101000a900463ffffffff169050919050565b3373ffffffffffffffffffffffffffffffffffffffff1660008054906101000a900473ffffffffffffffffffffffffffffffffffffffff1673ffffffffffffffffffffffffffffffffffffffff161461037e57600080fd5b6000600160006001600360009054906101000a900460ff166103a09190611a78565b60ff1660ff16815260200190815260200160002060009054906101000a900473ffffffffffffffffffffffffffffffffffffffff16905060005b600360009054906101000a900460ff1660ff168160ff16101561053857600260008373ffffffffffffffffffffffffffffffffffffffff1673ffffffffffffffffffffffffffffffffffffffff16815260200190815260200160002060010160009054906101000a900463ffffffff1663ffffffff1660026000600160008560ff1660ff16815260200190815260200160002060009054906101000a900473ffffffffffffffffffffffffffffffffffffffff1673ffffffffffffffffffffffffffffffffffffffff1673ffffffffffffffffffffffffffffffffffffffff16815260200190815260200160002060010160009054906101000a900463ffffffff1663ffffffff16111561052557600160008260ff1660ff16815260200190815260200160002060009054906101000a900473ffffffffffffffffffffffffffffffffffffffff1691505b808061053090611aac565b9150506103da565b508073ffffffffffffffffffffffffffffffffffffffff166108fc479081150290604051600060405180830381858888f1935050505015801561057f573d6000803e3d6000fd5b5061058861095f565b50565b60606000600360009054906101000a900460ff1660ff1667ffffffffffffffff8111156105bb576105ba61189f565b5b6040519080825280602002602001820160405280156105e95781602001602082028036833780820191505090505b50905060005b600360009054906101000a900460ff1660ff168160ff1610156106a957600160008260ff1660ff16815260200190815260200160002060009054906101000a900473ffffffffffffffffffffffffffffffffffffffff16828260ff168151811061065c5761065b611ad6565b5b602002602001019073ffffffffffffffffffffffffffffffffffffffff16908173ffffffffffffffffffffffffffffffffffffffff168152505080806106a190611aac565b9150506105ef565b508091505090565b60606040518060400160405280601481526020017f57656c636f6d6520746f207468652067616d6521000000000000000000000000815250905090565b6000600360009054906101000a900460ff1660ff16905090565b6060600080600260008573ffffffffffffffffffffffffffffffffffffffff1673ffffffffffffffffffffffffffffffffffffffff168152602001908152602001600020600001600260008673ffffffffffffffffffffffffffffffffffffffff1673ffffffffffffffffffffffffffffffffffffffff16815260200190815260200160002060010160009054906101000a900463ffffffff16600260008773ffffffffffffffffffffffffffffffffffffffff1673ffffffffffffffffffffffffffffffffffffffff16815260200190815260200160002060010160049054906101000a900460ff168280546107fe90611b34565b80601f016020809104026020016040519081016040528092919081815260200182805461082a90611b34565b80156108775780601f1061084c57610100808354040283529160200191610877565b820191906000526020600020905b81548152906001019060200180831161085a57829003601f168201915b505050505092509250925092509193909250565b6060600260008373ffffffffffffffffffffffffffffffffffffffff1673ffffffffffffffffffffffffffffffffffffffff16815260200190815260200160002060000180546108da90611b34565b80601f016020809104026020016040519081016040528092919081815260200182805461090690611b34565b80156109535780601f1061092857610100808354040283529160200191610953565b820191906000526020600020905b81548152906001019060200180831161093657829003601f168201915b50505050509050919050565b3373ffffffffffffffffffffffffffffffffffffffff1660008054906101000a900473ffffffffffffffffffffffffffffffffffffffff1673ffffffffffffffffffffffffffffffffffffffff16146109b757600080fd5b60005b600360009054906101000a900460ff1660ff168160ff161015610a8557600060026000600160008560ff1660ff16815260200190815260200160002060009054906101000a900473ffffffffffffffffffffffffffffffffffffffff1673ffffffffffffffffffffffffffffffffffffffff1673ffffffffffffffffffffffffffffffffffffffff16815260200190815260200160002060010160006101000a81548163ffffffff021916908363ffffffff1602179055508080610a7d90611aac565b9150506109ba565b50565b60608060606000600360009054906101000a900460ff1660ff1667ffffffffffffffff811115610abb57610aba61189f565b5b604051908082528060200260200182016040528015610aee57816020015b6060815260200190600190039081610ad95790505b5090506000600360009054906101000a900460ff1660ff1667ffffffffffffffff811115610b1f57610b1e61189f565b5b604051908082528060200260200182016040528015610b4d5781602001602082028036833780820191505090505b5090506000600360009054906101000a900460ff1660ff1667ffffffffffffffff811115610b7e57610b7d61189f565b5b604051908082528060200260200182016040528015610bac5781602001602082028036833780820191505090505b50905060005b600360009054906101000a900460ff1660ff168160ff161015610e765760026000600160008460ff1660ff16815260200190815260200160002060009054906101000a900473ffffffffffffffffffffffffffffffffffffffff1673ffffffffffffffffffffffffffffffffffffffff1673ffffffffffffffffffffffffffffffffffffffff1681526020019081526020016000206000018054610c5590611b34565b80601f0160208091040260200160405190810160405280929190818152602001828054610c8190611b34565b8015610cce5780601f10610ca357610100808354040283529160200191610cce565b820191906000526020600020905b815481529060010190602001808311610cb157829003601f168201915b5050505050848260ff1681518110610ce957610ce8611ad6565b5b602002602001018190525060026000600160008460ff1660ff16815260200190815260200160002060009054906101000a900473ffffffffffffffffffffffffffffffffffffffff1673ffffffffffffffffffffffffffffffffffffffff1673ffffffffffffffffffffffffffffffffffffffff16815260200190815260200160002060010160009054906101000a900463ffffffff16838260ff1681518110610d9657610d95611ad6565b5b602002602001019063ffffffff16908163ffffffff168152505060026000600160008460ff1660ff16815260200190815260200160002060009054906101000a900473ffffffffffffffffffffffffffffffffffffffff1673ffffffffffffffffffffffffffffffffffffffff1673ffffffffffffffffffffffffffffffffffffffff16815260200190815260200160002060010160049054906101000a900460ff16828260ff1681518110610e4f57610e4e611ad6565b5b602002602001019060ff16908160ff16815250508080610e6e90611aac565b915050610bb2565b50828282955095509550505050909192565b6000600260008373ffffffffffffffffffffffffffffffffffffffff1673ffffffffffffffffffffffffffffffffffffffff16815260200190815260200160002060010160049054906101000a900460ff169050919050565b6001600260003373ffffffffffffffffffffffffffffffffffffffff1673ffffffffffffffffffffffffffffffffffffffff16815260200190815260200160002060010160049054906101000a900460ff1660ff1614610f4057600080fd5b6501d1a94a2000341015610f5357600080fd5b3073ffffffffffffffffffffffffffffffffffffffff166108fc349081150290604051600060405180830381858888f19350505050158015610f99573d6000803e3d6000fd5b5080600260003373ffffffffffffffffffffffffffffffffffffffff1673ffffffffffffffffffffffffffffffffffffffff16815260200190815260200160002060010160006101000a81548163ffffffff021916908363ffffffff16021790555050565b60006040518060600160405280838152602001600063ffffffff168152602001600160ff16815250600260003373ffffffffffffffffffffffffffffffffffffffff1673ffffffffffffffffffffffffffffffffffffffff16815260200190815260200160002060008201518160000190805190602001906110819291906111a8565b5060208201518160010160006101000a81548163ffffffff021916908363ffffffff16021790555060408201518160010160046101000a81548160ff021916908360ff1602179055509050503360016000600360009054906101000a900460ff1660ff1660ff16815260200190815260200160002060006101000a81548173ffffffffffffffffffffffffffffffffffffffff021916908373ffffffffffffffffffffffffffffffffffffffff1602179055507f61268030819b0bcf8b07a282126bd0f34aa7ec9e554867ec2a8dff2a1109a8e660405161116190611bb2565b60405180910390a16001600360009054906101000a900460ff166111859190611bd2565b600360006101000a81548160ff021916908360ff16021790555060019050919050565b8280546111b490611b34565b90600052602060002090601f0160209004810192826111d6576000855561121d565b82601f106111ef57805160ff191683800117855561121d565b8280016001018555821561121d579182015b8281111561121c578251825591602001919060010190611201565b5b50905061122a919061122e565b5090565b5b8082111561124757600081600090555060010161122f565b5090565b6000604051905090565b600080fd5b600080fd5b600073ffffffffffffffffffffffffffffffffffffffff82169050919050565b600061128a8261125f565b9050919050565b61129a8161127f565b81146112a557600080fd5b50565b6000813590506112b781611291565b92915050565b6000602082840312156112d3576112d2611255565b5b60006112e1848285016112a8565b91505092915050565b600063ffffffff82169050919050565b611303816112ea565b82525050565b600060208201905061131e60008301846112fa565b92915050565b600081519050919050565b600082825260208201905092915050565b6000819050602082019050919050565b6113598161127f565b82525050565b600061136b8383611350565b60208301905092915050565b6000602082019050919050565b600061138f82611324565b611399818561132f565b93506113a483611340565b8060005b838110156113d55781516113bc888261135f565b97506113c783611377565b9250506001810190506113a8565b5085935050505092915050565b600060208201905081810360008301526113fc8184611384565b905092915050565b600081519050919050565b600082825260208201905092915050565b60005b8381101561143e578082015181840152602081019050611423565b8381111561144d576000848401525b50505050565b6000601f19601f8301169050919050565b600061146f82611404565b611479818561140f565b9350611489818560208601611420565b61149281611453565b840191505092915050565b600060208201905081810360008301526114b78184611464565b905092915050565b6000819050919050565b6114d2816114bf565b82525050565b60006020820190506114ed60008301846114c9565b92915050565b600060ff82169050919050565b611509816114f3565b82525050565b600060608201905081810360008301526115298186611464565b905061153860208301856112fa565b6115456040830184611500565b949350505050565b600081519050919050565b600082825260208201905092915050565b6000819050602082019050919050565b600082825260208201905092915050565b600061159582611404565b61159f8185611579565b93506115af818560208601611420565b6115b881611453565b840191505092915050565b60006115cf838361158a565b905092915050565b6000602082019050919050565b60006115ef8261154d565b6115f98185611558565b93508360208202850161160b85611569565b8060005b85811015611647578484038952815161162885826115c3565b9450611633836115d7565b925060208a0199505060018101905061160f565b50829750879550505050505092915050565b600081519050919050565b600082825260208201905092915050565b6000819050602082019050919050565b61168e816112ea565b82525050565b60006116a08383611685565b60208301905092915050565b6000602082019050919050565b60006116c482611659565b6116ce8185611664565b93506116d983611675565b8060005b8381101561170a5781516116f18882611694565b97506116fc836116ac565b9250506001810190506116dd565b5085935050505092915050565b600081519050919050565b600082825260208201905092915050565b6000819050602082019050919050565b61174c816114f3565b82525050565b600061175e8383611743565b60208301905092915050565b6000602082019050919050565b600061178282611717565b61178c8185611722565b935061179783611733565b8060005b838110156117c85781516117af8882611752565b97506117ba8361176a565b92505060018101905061179b565b5085935050505092915050565b600060608201905081810360008301526117ef81866115e4565b9050818103602083015261180381856116b9565b905081810360408301526118178184611777565b9050949350505050565b60006020820190506118366000830184611500565b92915050565b611845816112ea565b811461185057600080fd5b50565b6000813590506118628161183c565b92915050565b60006020828403121561187e5761187d611255565b5b600061188c84828501611853565b91505092915050565b600080fd5b600080fd5b7f4e487b7100000000000000000000000000000000000000000000000000000000600052604160045260246000fd5b6118d782611453565b810181811067ffffffffffffffff821117156118f6576118f561189f565b5b80604052505050565b600061190961124b565b905061191582826118ce565b919050565b600067ffffffffffffffff8211156119355761193461189f565b5b61193e82611453565b9050602081019050919050565b82818337600083830152505050565b600061196d6119688461191a565b6118ff565b9050828152602081018484840111156119895761198861189a565b5b61199484828561194b565b509392505050565b600082601f8301126119b1576119b0611895565b5b81356119c184826020860161195a565b91505092915050565b6000602082840312156119e0576119df611255565b5b600082013567ffffffffffffffff8111156119fe576119fd61125a565b5b611a0a8482850161199c565b91505092915050565b60008115159050919050565b611a2881611a13565b82525050565b6000602082019050611a436000830184611a1f565b92915050565b7f4e487b7100000000000000000000000000000000000000000000000000000000600052601160045260246000fd5b6000611a83826114f3565b9150611a8e836114f3565b925082821015611aa157611aa0611a49565b5b828203905092915050565b6000611ab7826114f3565b915060ff821415611acb57611aca611a49565b5b600182019050919050565b7f4e487b7100000000000000000000000000000000000000000000000000000000600052603260045260246000fd5b7f4e487b7100000000000000000000000000000000000000000000000000000000600052602260045260246000fd5b60006002820490506001821680611b4c57607f821691505b60208210811415611b6057611b5f611b05565b5b50919050565b7f41206e657720706c6179657220686173206265656e2061646465640000000000600082015250565b6000611b9c601b8361140f565b9150611ba782611b66565b602082019050919050565b60006020820190508181036000830152611bcb81611b8f565b9050919050565b6000611bdd826114f3565b9150611be8836114f3565b92508260ff03821115611bfe57611bfd611a49565b5b82820190509291505056fea2646970667358221220e4173625095c8c3d30c0628020dc9dd741eafda46e455a3ffb4577dd42ca751864736f6c63430008090033",
  "linkReferences": {},
  "deployedLinkReferences": {}
}